:0E0000000C945A000C9400000C9400000C9418
:10000E0000000C9400000C9400000C9400000C9462
:10001E0000000C9400000C9400000C9400000C9452
:10002E0000000C9400000C9400000C9400000C9442
:10003E0000000C9400000C9400000C9400000C9432
:10004E0000000C9400001027E80364000A00010071
:10005E0000100001100001002025303264005465AC
:10006E006D703D256400706172766120616C69610E
:10007E006465003130313936303231323533390042
:10008E0070726F6A6563740070726573735F6B650F
:10009E0079006B65792069733D25640080C002008C
:1000AE006F02AA000000F894EE27ECBBF1E0FBBF54
:1000BE00EBBFE5BF8DE0A2E0BB27ED938A95E9F794
:1000CE0080E098E0A0E6ED930197E9F7ECEAF0E026
:1000DE0085919591009761F0A591B5910590159038
:1000EE00BF01F00105900D920197E1F7FB01F0CFF2
:1000FE00EFE5EDBFE8E0EEBFC0E6D2E00C94FC0009
:10010E001A931A2FE12FE06CE7B983E08A95F1F785
:10011E00369A349BFECF349AE4B1F5B10C94840335
:10012E00E0E0E7BBEFE0E8BBE0E1E7BBB09906C07B
:10013E00FFD2E7E0F0E060E070E03EC0B19906C0AB
:10014E00F7D2E4E0F0E060E070E036C0B29903C0B0
:10015E00F8D2A0E02DC0E0E2E7BBB09906C0E8D22D
:10016E00E8E0F0E060E070E027C0B19906C0E0D2B0
:10017E00E5E0F0E060E070E01FC0B29903C0E1D2AC
:10018E00A1E016C0E0E4E7BBB09906C0D1D2E9E029
:10019E00F0E060E070E010C0B19906C0C9D2E6E0B0
:1001AE00F0E060E070E008C0B2990BC0CAD2A2E0E5
:1001BE00A7DF1ED36627772724D384E0D1D12896D4
:1001CE000895E0E8E7BBB09903C0EAE0F0E00895D7
:1001DE00B19903C0EBE0F0E00895B29903C0ECE0F2
:1001EE00F0E00895EFEFF0E008952F97E0E0EABB1E
:1001FE00EBBBE7BBE8BBE4BBE5BBE1BBE2BBE3BFEC
:10020E00E2BFECBFEFBDEEBDEDBDECBDE7BDE6BDA3
:10021E00EBBDEABDE9BDE8BDE2BDE5BDE4BDE3BDB4
:10022E00E9BFE5BFE4BFEAB9E0E8E8B9E0ECE7B959
:10023E00E3E8E6B9E0E0E0BFEDB9E6BFA0E135D214
:10024E0089D2A4E7B0E08BD2A1E8B0E01FD2A8EE2D
:10025E00B3E0DCD2F0D1A0E053DF2F01A1E050DFFC
:10026E003F01A2E04DDF4F01E0E0EA93A0E0D1D1E3
:10027E00AEE8B0E074D2A6E9B0E008D251DF8F014B
:10028E000F3FE0E01E07BCF4FE01FA93EA93E0EAAA
:10029E00F0E0FA93EA93F8016F2F660F660B762F54
:1002AE00B0D284E05DD1289655D2A0E6B2E0E1D17D
:1002BE00A4EFB1E0ABD2CFCFFFCF88D29D015E814C
:1002CE001296ED91FC9111973097E9F0D9014CD22D
:1002DE008F01309759F00230E0E01E0760F0F80110
:1002EE0031978F01D9011496ED93FC93D901129693
:1002FE0040D231975083D901ED91FC911197FF2394
:10030E000AF037D205C0D901EFEFFFEFED93FC9362
:10031E0064D227960895BA93AA93269757D210E0DF
:10032E00AC85BD85E0E0F0E0ED93FC93EA89FB89B6
:10033E003196EA8BFB8B3197E4912E2FE03009F446
:10034E0008C1E12FE03031F4253211F411E001C083
:10035E0016D2FEC0E130A1F4253211F410D2F7C04E
:10036E0012E040E000E02D3211F401E0F1C02B323A
:10037E0011F44BE2EDC0203211F440E2E9C002C0AC
:10038E00E23039F450E013E0203311F40068E0C09D
:10039E0003C0E33009F0DCC0203310F02A3308F03C
:1003AE0007C0AAE05A9F502DE22FE0535E0FD0C037
:1003BE00E22FE33639F4EAD1E889F989A481AA93C8
:1003CE00EBD1C5C0E33729F4E1D1ECD198D11E2F82
:1003DE0007C0E03749F4DAD1E5D19DD11E2F086070
:1003EE0002600F7730E037C0E43611F0E93611F4D1
:1003FE00046002C0E53731F4E4E5F0E0EE83FF83FC
:10040E0015E00CC0E83511F4086003C0E83709F0B8
:10041E009EC0EEE5F0E0EE83FF8314E002FF15C010
:10042E00B5D1A889B9891496ED91FD91EA87FB871C
:10043E00AB85AA2322F4D8D1EA87FB874DE2403060
:10044E0011F01F5F01C00B7F06C0A0D1A889B9892A
:10045E008BD1EA87FB8700FD10C0151770F407FFDC
:10046E0008C002FF04C00B7F242F115001C020E3EF
:10047E0001C020E284D15150F0CF312F01FF16C0C0
:10048E00303099F003FF06C0EE81FF812591EE8397
:10049E00FF8305C0AE81BF812D91AE83BF836FD127
:1004AE00503009F051503150EBCF48C020E3EE816F
:1004BE00FF81A3D1E887F987EE81FF813296EE8323
:1004CE00FF83E885F985AA85BB85AE17BF0750F077
:1004DE002F5FA885B985EA85FB85EA1BFB0BEA87AA
:1004EE00FB87EFCF2A3328F003FF02C0295F01C03C
:1004FE00295D04FD19C0213320F4A885B985119713
:10050E0009F409C0531710F000FF01C011C020E21A
:10051E0007FF0AC020E3006102FF06C00B7F4A936B
:10052E003BD1503009F051502AD1503009F0515082
:10053E003150A885B985129708F0B8CF00FF07C0D3
:10054E00503029F05150E0E2EA9326D1F9CF10E075
:10055E00EDCEAC85BD85ED91FD913FD164960895AC
:10056E00FF92F82E269732D1FE010024EF0DF01DDA
:10057E0046855785042E052A19F4EFEFFFEF23C0A9
:10058E00DE0118960024AF0DB01D8D0148875987E6
:10059E00E0E0EA87EB87DE011C960024AF0DB01D6C
:1005AE00ED91FD91FA93EA931A930A93E4E6F1E042
:1005BE00FA93EA93DE011C96AEDE9F01A885B985FB
:1005CE00E0E0EC93F90109D12C96FF9008951A936F
:1005DE001A2FE5B3EF70AE2FE12FE07FEA2BE5BBCC
:1005EE0082E08A95F1F7AA9A82E08A95F1F7AA98A5
:1005FE0082E08A95F1F781C0AA93A881E8DFE881AD
:10060E00E295E883A881E3DF81E18A95F1F72196EF
:10061E0008951A930A931A2F0A81E12FF0E0E159F7
:10062E00FD4FE081E00FAE2FE7DFB02EA12E198136
:10063E00088123960895A2E0BFD0ACE0DDDFA1E0F3
:10064E00BBD0E0E0AE2EBE2E08951A931A2F1A30AC
:10065E0011F0BD1440F0E0E0EA93A394AA2DD9DF87
:10066E001A3009F44AC0B394A89AA12FC5DFA898EE
:10067E0044C0AED09D01D9012F5F3F4FEC911E2F8C
:10068E00E03019F0A12FE1DFF6CF0CC0A1D09D0113
:10069E00F9012F5F3F4FE4911E2FE03019F0A12F8B
:1006AE00D4DFF6CF9CD0249608951A931A2FE4B374
:1006BE00E06FE4BBA29AA09AA19AAA98A898A998CA
:1006CE00D12EE12FE058E0937102E12FE054E09338
:1006DE007202A4E1B0E09AD073D072D071D0A0E2D1
:1006EE0076DF81E28A95F1F7A8E286DFA4E084DF67
:1006FE00A5E882DFA6E080DF9EDF19910895BA9308
:10070E00AA93A991B991EE27FF276D91662311F057
:10071E003196FBCF0895BA93AA93AA27BB27E991E6
:10072E00F9910590002011F01196FBCFFD0108956F
:10073E00E0E6F2E0FA93EA93E6E6F0E0FA93EA9363
:10074E000895E0E6F2E0FA93EA93ECE6F0E0FA932D
:10075E00EA93089570DFE0E0EA93A0E05ACF96DFC7
:10076E00E0E0EA93A1E055CF1496ED91FC9111973C
:10077E000895ED91FD913196FE93EE9308952A938F
:10078E00AD85BE85EF85F88909950895E889F989C3
:10079E003497E88BF98B0895AD85BE85EF85F88982
:1007AE0009950895A889B9891496ED91FD91EE8366
:1007BE00FF83AE81BF8108951FDFA3E0B0E026C0A6
:1007CE00A0E305DF81E28A95F1F708955A934A93E3
:1007DE003A932A931A930A9308955D814C813B8133
:1007EE002A81198108810895F195E195F0400895C7
:1007FE00F695E795F695E79508950590F491E02D19
:10080E0008957A936A93FA93EA930895109639F0BD
:10081E00A8958AEF90E00197F1F71197C9F708951F
:00000001FF
