:0A0000000C9452000C9400000C94C4
:10000A0000000C9400000C9400000C9400000C9466
:10001A0000000C9400000C9400000C9400000C9456
:10002A0000000C9400000C9400000C9400000C9446
:10003A0000000C9400000C9400000C9400000C9436
:10004A0000000C9400000C9400001027E8036400E0
:10005A000A000100001000011000010020253032C2
:10006A00640054656D703D25642020004172696EFC
:10007A006127732050726F6A6563740070726573CA
:10008A00735F6B6579006B65792069733D25640040
:10009A0080C002006F029A000000F894EE27ECBBC1
:1000AA00F1E0FBBFEBBFE5BF8DE0A2E0BB27ED931C
:1000BA008A95E9F780E098E0A0E6ED930197E9F7E1
:1000CA00ECE9F0E085919591009761F0A591B591E1
:1000DA0005901590BF01F00105900D920197E1F787
:1000EA00FB01F0CFEFE5EDBFE8E0EEBFC0E6D2E0FE
:1000FA000C941301AA93E881E06CE7B983E08A952E
:10010A00F1F7369A349BFECF349AE4B1F5B10C94E8
:10011A00C803E0E0E4BBEFE0E5BBE0E1E4BB9899AB
:10012A0007C00E94E303E7E0F0E060E070E051C03E
:10013A00999907C00E94E303E4E0F0E060E070E010
:10014A0048C09A9904C00E94EC03A0E03DC09B9964
:10015A0003C0EDE0F0E00895E0E2E4BB989907C03F
:10016A000E94E303E8E0F0E060E070E032C09999B1
:10017A0007C00E94E303E5E0F0E060E070E029C018
:10018A009A9904C00E94EC03A1E01EC09B9903C087
:10019A00E0E0F0E00895E0E4E4BB989907C00E942B
:1001AA00E303E9E0F0E060E070E013C0999907C06A
:1001BA000E94E303E6E0F0E060E070E00AC09A998A
:1001CA000FC00E94EC03A2E095DF0E94400466275C
:1001DA0077270E94520484E00E94F9022896089523
:1001EA009B9903C0EEE0F0E00895E0E8E4BB98993B
:1001FA0003C0EAE0F0E00895999903C0EBE0F0E06B
:10020A0008959A9903C0ECE0F0E008959B9903C021
:10021A00EFE0F0E00895EFEFF0E008952F97E0E0C7
:10022A00EABBEBBBE7BBE8BBE4BBE5BBE1BBE2BBBC
:10023A00E3BFE2BFECBFEFBDEEBDEDBDECBDE7BD78
:10024A00E6BDEBBDEABDE9BDE8BDE2BDE5BDE4BD85
:10025A00E3BDE9BFE5BFE4BFEAB9E0E8E8B9E0E039
:10026A00E0BFE6B9EDB9E6BFE8BBE7EFE7BBE0EC14
:10027A00E7B9E3E8E6B9A0E10E949D03A0E03ADF0E
:10028A002F01A1E037DF3F01A2E034DF4F01E0E0B8
:10029A00EA93A0E00E944D03A6E7B0E00E948A0319
:1002AA00E0E0EA93A1E00E944D03A6E8B0E00E94D4
:1002BA008A032FDF8F010F3FE0E01E07FCF4FE01E7
:1002CA00FA93EA93E0E9F0E0FA93EA93F8010E94DC
:1002DA0045040E94520484E00E94F90228960E9472
:1002EA005A03E0E0EA93A0E00E944D03A0E6B2E0E0
:1002FA000E947B03A4EFB1E00E942E04BFCFFFCF80
:10030A00BA93AA931A930A93AA81BB8112960E945E
:10031A004A04309759F1AA81BB8114960E944A0473
:10032A008F01309761F00230E0E01E0798F0F80183
:10033A0031978F01AA81BB811496ED93FC93AA8110
:10034A00BB811296ED91FD913196FE93EE93319712
:10035A00AC81A083AA81BB810E944A04FF232AF0B0
:10036A00ED91FD913196FE93EE9306C0AA81BB8171
:10037A00EFEFFFEFED93FC9319810881259608951D
:10038A00BA93AA9326970E94570410E0AC85BD85BC
:10039A00E0E0F0E0ED93FC93EA89FB893196EA8B81
:1003AA00FB8B3197E4912E2FE03009F415C1E12F30
:1003BA00E03039F4253211F411E002C00E94F5034D
:1003CA000AC1E130A9F4253219F40E94F50302C1E9
:1003DA0012E040E000E02D3211F401E0FCC02B32C3
:1003EA0011F44BE2F8C0203211F440E2F4C002C02A
:1003FA00E23039F450E013E0203311F40068EBC026
:10040A0003C0E33009F0E7C0203310F02A3308F0C4
:10041A0007C0AAE05A9F502DE22FE0535E0FDBC0BF
:10042A00E22FE33649F40E94FC03E889F989A481A2
:10043A00AA930E940204CEC0E33741F40E94FC034F
:10044A000E9408040E94CA031E2F0AC0E03761F402
:10045A000E94FC030E9408040E94D6031E2F086013
:10046A0002600F7730E034C0E43611F0E93611F457
:10047A00046002C0E53731F4E4E5F0E0EE83FF837F
:10048A0015E00CC0E83511F4086003C0E83709F03C
:10049A00A1C0EEE5F0E0EE83FF8314E002FF14C092
:1004AA000E94FC030E941204AB85AA233AF4EA854F
:1004BA00FB850E943C04EA87FB874DE2403011F03D
:1004CA001F5F01C00B7F04C00E94FC030E9412043C
:1004DA0000FD11C0151778F407FF08C002FF04C019
:1004EA000B7F242F115001C020E301C020E20E949B
:1004FA00F5035150EFCF312F01FF17C03030A1F073
:10050A0003FF06C0EE81FF812591EE83FF8305C0BC
:10051A00AE81BF812D91AE83BF830E94F503503017
:10052A0009F051503150EACF4BC020E3EE81FF81F0
:10053A000E944E04E887F987EE81FF813296EE83A6
:10054A00FF83E885F985AA85BB85AE17BF0750F0FA
:10055A002F5FA885B985EA85FB85EA1BFB0BEA872D
:10056A00FB87EFCF2A3328F003FF02C0295F01C0BF
:10057A00295D04FD1AC0213320F4A885B985119795
:10058A0009F409C0531710F000FF01C013C020E29C
:10059A0007FF0BC020E3006102FF07C00B7F4A93ED
:1005AA000E940204503009F051500E94F503503065
:1005BA0009F051503150A885B985129708F0B5CF86
:1005CA0000FF08C0503031F05150E0E2EA930E9437
:1005DA000204F8CF10E0E0CEAC85BD850E944A0443
:1005EA000E945E0464960895FF92F82E26970E9450
:1005FA0059040E941A04309719F4EFEFFFEF23C051
:10060A00DE0116960E9438048D010E941A04EE83B8
:10061A00FF83E0E0E887E987DE011A960E94380442
:10062A000E944A04FA93EA931A930A93E5E8F1E0DE
:10063A00FA93EA93DE011A96A3DE9F01AE81BF8187
:10064A00E0E0EC93F9010E9460042A96FF90089575
:10065A00AA93E8B3EF70AE2FE881E07FEA2BE8BBFC
:10066A0082E08A95F1F7C29A82E08A95F1F7C298F8
:10067A0082E08A95F1F787C0AA93A881E9DFE88129
:10068A00E295E883A881E4DF81E18A95F1F77BC0EE
:10069A00AA93E881F0E0E159FD4FE081A981AE0F0C
:1006AA00EBDFB980A88022960895A2E00E94210477
:1006BA00ACE0E2DFA1E00E942104E0E0AE2EBE2E13
:1006CA000895AA93A881AA3011F0BD1448F0E0E079
:1006DA00EA93A394AA2DDCDFA881AA3009F453C0B7
:1006EA00B394C09AA881C8DFC0984DC0BA93AA93A0
:1006FA001A93A981BA81ED91A983BA831E2FE0309A
:10070A0019F0A12FDEDFF5CF10C0BA93AA931A937E
:10071A00E981FA813196E983FA833197E4911E2FB0
:10072A00E03019F0A12FCDDFF3CF18812396089579
:10073A00AA93E7B3E06FE7BBBA9AB89AB99AC29894
:10074A00C098C198D880E881E058E0937102E881A6
:10075A00E054E0937202A4E1B0E00E942E040E94E9
:10076A0027040E9427040E942704A0E271DF81E285
:10077A008A95F1F7A8E280DFA4E07EDFA5E87CDFB6
:10078A00A6E07ADF92DF21960895BA93AA93A991F7
:10079A00B991EE27FF276D91662311F03196FBCFB1
:1007AA000895BA93AA93AA27BB27E991F9910590CC
:1007BA00002011F01196FBCFFD010895E0E6F2E06A
:1007CA00FA93EA93E6E6F0E0FA93EA930895E0E60C
:1007DA00F2E0FA93EA93ECE6F0E0FA93EA930895EA
:1007EA002A93AD85BE85EF85F88909950895E8892C
:1007FA00F9893497E88BF98B0895AD85BE85EF8525
:10080A00F88909950895A889B98914960E944A0415
:10081A00EE83FF83AE81BF810895A889B9891496B2
:10082A000E944A04EA87FB870895DE011C960E940B
:10083A0038040E944A0408950E944103A3E0B0E0EC
:10084A000C942E04A0E30E942D0381E28A95F1F70D
:10085A000895109639F08AEF90E00197F1F7A8957C
:10086A001197C9F708950024AF0DB01D0895F195A9
:10087A00E195F0400895F695E795F695E795089580
:10088A006F2F660F660B762F0895ED91FC911197E5
:10089A0008950590F491E02D08957A936A93FA9356
:1008AA00EA9308955A934A933A932A931A930A9386
:1008BA0008955D814C813B812A81198108810895BF
:00000001FF
